{
  "contractName": "Track",
  "abi": [
    {
      "inputs": [],
      "payable": false,
      "stateMutability": "nonpayable",
      "type": "constructor",
      "signature": "constructor"
    },
    {
      "anonymous": false,
      "inputs": [
        {
          "indexed": false,
          "name": "idlst",
          "type": "uint256[]"
        }
      ],
      "name": "displayOrder",
      "type": "event",
      "signature": "0x01e5e7f830eff1f761af3698b50e0560674b36b1a26db6144def5cccec4efdf5"
    },
    {
      "anonymous": false,
      "inputs": [
        {
          "indexed": false,
          "name": "id",
          "type": "uint256"
        }
      ],
      "name": "SetOrder",
      "type": "event",
      "signature": "0x23950a1e7766ae48d9a37c0b2831c2ff3da75d48fb613aee3d38ed0c2f940ed6"
    },
    {
      "anonymous": false,
      "inputs": [
        {
          "indexed": false,
          "name": "status",
          "type": "string"
        }
      ],
      "name": "CheckTransport",
      "type": "event",
      "signature": "0xde46107ce0c0b7c81c92a2a271c1efd422dfe7697736dcd262be594611261794"
    },
    {
      "anonymous": false,
      "inputs": [
        {
          "indexed": false,
          "name": "status",
          "type": "string"
        }
      ],
      "name": "CheckClient",
      "type": "event",
      "signature": "0x29d29e7054eda5410f0b8871b14fe159a695b57045b7bcb2882b579474037686"
    },
    {
      "constant": false,
      "inputs": [
        {
          "name": "transp",
          "type": "address"
        },
        {
          "name": "client",
          "type": "address"
        }
      ],
      "name": "setOrder",
      "outputs": [
        {
          "name": "Ordernumber",
          "type": "uint256"
        }
      ],
      "payable": false,
      "stateMutability": "nonpayable",
      "type": "function",
      "signature": "0x5e33df9b"
    },
    {
      "constant": false,
      "inputs": [
        {
          "name": "idOrder",
          "type": "uint256"
        }
      ],
      "name": "checkTransport",
      "outputs": [],
      "payable": false,
      "stateMutability": "nonpayable",
      "type": "function",
      "signature": "0xb3fc3172"
    },
    {
      "constant": false,
      "inputs": [
        {
          "name": "idOrder",
          "type": "uint256"
        }
      ],
      "name": "checkClient",
      "outputs": [],
      "payable": false,
      "stateMutability": "nonpayable",
      "type": "function",
      "signature": "0xa9218ed3"
    },
    {
      "constant": true,
      "inputs": [
        {
          "name": "idOrder",
          "type": "uint256"
        }
      ],
      "name": "getOrderDetail",
      "outputs": [
        {
          "name": "provider",
          "type": "address"
        },
        {
          "name": "transporter",
          "type": "address"
        },
        {
          "name": "client",
          "type": "address"
        },
        {
          "name": "state",
          "type": "uint8"
        }
      ],
      "payable": false,
      "stateMutability": "view",
      "type": "function",
      "signature": "0xe4c79a4a"
    },
    {
      "constant": true,
      "inputs": [],
      "name": "getOrderLst",
      "outputs": [
        {
          "name": "",
          "type": "uint256[]"
        }
      ],
      "payable": false,
      "stateMutability": "view",
      "type": "function",
      "signature": "0xd9451c20"
    }
  ],
  "bytecode": "0x608060405234801561001057600080fd5b5060008081905550610b2f806100276000396000f3fe60806040526004361061006d576000357c0100000000000000000000000000000000000000000000000000000000900463ffffffff1680635e33df9b14610072578063a9218ed3146100f7578063b3fc317214610132578063d9451c201461016d578063e4c79a4a146101d9575b600080fd5b34801561007e57600080fd5b506100e16004803603604081101561009557600080fd5b81019080803573ffffffffffffffffffffffffffffffffffffffff169060200190929190803573ffffffffffffffffffffffffffffffffffffffff1690602001909291905050506102cf565b6040518082815260200191505060405180910390f35b34801561010357600080fd5b506101306004803603602081101561011a57600080fd5b8101908080359060200190929190505050610463565b005b34801561013e57600080fd5b5061016b6004803603602081101561015557600080fd5b8101908080359060200190929190505050610575565b005b34801561017957600080fd5b50610182610688565b6040518080602001828103825283818151815260200191508051906020019060200280838360005b838110156101c55780820151818401526020810190506101aa565b505050509050019250505060405180910390f35b3480156101e557600080fd5b50610212600480360360208110156101fc57600080fd5b8101908080359060200190929190505050610a25565b604051808573ffffffffffffffffffffffffffffffffffffffff1673ffffffffffffffffffffffffffffffffffffffff1681526020018473ffffffffffffffffffffffffffffffffffffffff1673ffffffffffffffffffffffffffffffffffffffff1681526020018373ffffffffffffffffffffffffffffffffffffffff1673ffffffffffffffffffffffffffffffffffffffff1681526020018260028111156102b857fe5b60ff16815260200194505050505060405180910390f35b600033600260008054815260200190815260200160002060000160006101000a81548173ffffffffffffffffffffffffffffffffffffffff021916908373ffffffffffffffffffffffffffffffffffffffff16021790555082600260008054815260200190815260200160002060010160006101000a81548173ffffffffffffffffffffffffffffffffffffffff021916908373ffffffffffffffffffffffffffffffffffffffff16021790555081600260008054815260200190815260200160002060020160006101000a81548173ffffffffffffffffffffffffffffffffffffffff021916908373ffffffffffffffffffffffffffffffffffffffff1602179055506000600260008054815260200190815260200160002060020160146101000a81548160ff0219169083600281111561040757fe5b0217905550600160008082825401925050819055507f23950a1e7766ae48d9a37c0b2831c2ff3da75d48fb613aee3d38ed0c2f940ed66000546040518082815260200191505060405180910390a1600160005403905092915050565b3373ffffffffffffffffffffffffffffffffffffffff166002600083815260200190815260200160002060020160009054906101000a900473ffffffffffffffffffffffffffffffffffffffff1673ffffffffffffffffffffffffffffffffffffffff161415156104d357600080fd5b600280600083815260200190815260200160002060020160146101000a81548160ff0219169083600281111561050557fe5b02179055507f29d29e7054eda5410f0b8871b14fe159a695b57045b7bcb2882b5794740376866040518080602001828103825260078152602001807f726563656976650000000000000000000000000000000000000000000000000081525060200191505060405180910390a150565b3373ffffffffffffffffffffffffffffffffffffffff166002600083815260200190815260200160002060010160009054906101000a900473ffffffffffffffffffffffffffffffffffffffff1673ffffffffffffffffffffffffffffffffffffffff161415156105e557600080fd5b60016002600083815260200190815260200160002060020160146101000a81548160ff0219169083600281111561061857fe5b02179055507fde46107ce0c0b7c81c92a2a271c1efd422dfe7697736dcd262be5946112617946040518080602001828103825260098152602001807f7472616e73706f7274000000000000000000000000000000000000000000000081525060200191505060405180910390a150565b6060600080600091505b60005482101561080c573373ffffffffffffffffffffffffffffffffffffffff166002600084815260200190815260200160002060000160009054906101000a900473ffffffffffffffffffffffffffffffffffffffff1673ffffffffffffffffffffffffffffffffffffffff1614156107135780806001019150506107ff565b3373ffffffffffffffffffffffffffffffffffffffff166002600084815260200190815260200160002060010160009054906101000a900473ffffffffffffffffffffffffffffffffffffffff1673ffffffffffffffffffffffffffffffffffffffff16141561078a5780806001019150506107fe565b3373ffffffffffffffffffffffffffffffffffffffff166002600084815260200190815260200160002060020160009054906101000a900473ffffffffffffffffffffffffffffffffffffffff1673ffffffffffffffffffffffffffffffffffffffff1614156107fd5780806001019150505b5b5b8180600101925050610692565b60008090506060826040519080825280602002602001820160405280156108425781602001602082028038833980820191505090505b509050600093505b600054841015610a1b573373ffffffffffffffffffffffffffffffffffffffff166002600086815260200190815260200160002060000160009054906101000a900473ffffffffffffffffffffffffffffffffffffffff1673ffffffffffffffffffffffffffffffffffffffff1614156108e8578381838151811015156108cd57fe5b90602001906020020181815250508180600101925050610a0e565b3373ffffffffffffffffffffffffffffffffffffffff166002600086815260200190815260200160002060010160009054906101000a900473ffffffffffffffffffffffffffffffffffffffff1673ffffffffffffffffffffffffffffffffffffffff16141561097c5783818381518110151561096157fe5b90602001906020020181815250508180600101925050610a0d565b3373ffffffffffffffffffffffffffffffffffffffff166002600086815260200190815260200160002060020160009054906101000a900473ffffffffffffffffffffffffffffffffffffffff1673ffffffffffffffffffffffffffffffffffffffff161415610a0c578381838151811015156109f557fe5b906020019060200201818152505081806001019250505b5b5b838060010194505061084a565b8094505050505090565b6000806000806002600086815260200190815260200160002060000160009054906101000a900473ffffffffffffffffffffffffffffffffffffffff166002600087815260200190815260200160002060010160009054906101000a900473ffffffffffffffffffffffffffffffffffffffff166002600088815260200190815260200160002060020160009054906101000a900473ffffffffffffffffffffffffffffffffffffffff166002600089815260200190815260200160002060020160149054906101000a900460ff169350935093509350919350919356fea165627a7a72305820760eaf34cadf584fefb5d920e786fdfd8b93338efa4c973f268848406c2b35a70029",
  "source": "pragma solidity ^0.5.0;\n\ncontract Track {\n\n\tenum States {\n\t\tPENDING,\n\t\tTRANSPORT,\n\t\tACCEPTED\n\t}\n\n\tstruct Order {\n\t\taddress\tprovider;\n\t\taddress\ttransporter;\n\t\taddress\tclient;\n\t\tStates \tstate;\n\t}\n\n\n\tevent displayOrder(uint[] idlst);\n\tevent SetOrder(uint id);\n\tevent CheckTransport(string status);\n\tevent CheckClient(string status);\n\n\tuint private\tid;\n\taddress private creator;\n\n\tmapping (uint => Order) private lstOrder;\n\n\tconstructor() public {\n\t\tid = 0;\n\t}\n\n\tfunction setOrder(address transp, address client) public returns (uint Ordernumber) {\n\t\tlstOrder[id].provider = msg.sender;\n\t\tlstOrder[id].transporter = transp;\n\t\tlstOrder[id].client = client;\n\t\tlstOrder[id].state = States.PENDING;\n\t\tid += 1;\n\t\temit SetOrder(id);\n\t\treturn (id - 1);\n\t}\n\n\tfunction checkTransport(uint idOrder) public {\n\t\trequire(lstOrder[idOrder].transporter == msg.sender);\n\t\tlstOrder[idOrder].state = States.TRANSPORT;\n\t\temit CheckTransport(\"transport\");\n\t}\n\n\tfunction checkClient(uint idOrder) public {\n\t\trequire(lstOrder[idOrder].client == msg.sender);\n\t\tlstOrder[idOrder].state = States.ACCEPTED;\n\t\temit CheckClient(\"receive\");\n\t}\n\n\tfunction getOrderDetail(uint idOrder) public view returns (\n\t\taddress provider,\n\t\taddress transporter,\n\t\taddress client,\n\t\tStates\tstate){\n\n\t\treturn (lstOrder[idOrder].provider,\n\t\t\t\tlstOrder[idOrder].transporter,\n\t\t\t\tlstOrder[idOrder].client,\n\t\t\t\tlstOrder[idOrder].state);\n\t\t\t\t}\n\n\n\tfunction getOrderLst() public view returns (uint[] memory){\n\t\tuint\tx;\n\t\tuint\tcount;\n\t\tfor (x = 0; x < id; x++){\n\t\t\tif (lstOrder[x].provider == msg.sender){\n\t\t\t\tcount++;\n\t\t\t}\n\t\t\telse if (lstOrder[x].transporter == msg.sender){\n\t\t\t\tcount++;\n\t\t\t}\n\t\t\telse if (lstOrder[x].client == msg.sender){\n\t\t\t\tcount++;\n\t\t\t}\n\t\t}\n\n\t\tuint    i = 0;\n\t\tuint[] memory idlst = new uint[](count);\n\t\tfor (x = 0; x < id; x++){\n\t\t\tif (lstOrder[x].provider == msg.sender){\n\t\t\t\tidlst[i] = x;\n\t\t\t\ti++;\n\t\t\t}\n\t\t\telse if (lstOrder[x].transporter == msg.sender){\n\t\t\t\tidlst[i] = x;\n\t\t\t\ti++;\n\t\t\t}\n\t\t\telse if (lstOrder[x].client == msg.sender){\n\t\t\t\tidlst[i] = x;\n\t\t\t\ti++;\n\t\t\t}\n\t\t}\n\t\treturn (idlst);\n\t}\n}\n",
  "sourcePath": "/Users/jocohen/Documents/ETHParis-Project/contracts/track.sol",
  "compiler": {
    "name": "solc",
    "version": "0.5.0+commit.1d4f565a.Emscripten.clang"
  },
  "schemaVersion": "3.0.2",
  "updatedAt": "2019-03-15T18:24:43.928Z",
  "devdoc": {
    "methods": {}
  },
  "userdoc": {
    "methods": {}
  }
}